:020000020000FC
:1000000012C0F4C0FDC0FDC0FCC01BC11AC119C1A3
:1000100018C117C116C115C114C113C112C111C134
:1000200010C10FC10EC10FED0DBF0FEF07BB03E3F2
:1000300001BB0CE402BB01E00BBD02E10ABD00E420
:1000400009BF04B700FF04C0B8E0AFEF2FEFC1D085
:10005000002704BF78941ED0FFEFEFEF8BD0662708
:100060007727882791E05FD020D00EB50B3009F0BC
:10007000FACF59D046D00EB5003009F0FACF909A99
:10008000919A949A959802E008BBB0E4AFEF20EE05
:10009000A0D0C9CF41D000E40BBF00E305BF8895D5
:1000A00000E005BF00E00BBF089500B30C740C34F2
:1000B00061F0F0ECEFEF5ED010B301230C7406FF9B
:1000C00005D003FF0DD002FF15D0089583958A3027
:1000D00031F4993019F088279395089589E00895AF
:1000E0008A958F3F31F4903019F089E09A95089500
:1000F00081E008950BE00EBD8E9A8B9A00E40BBF51
:100100000895513019F0503021F008959698939A3F
:100110000895969A93980895909A919A949A959A98
:100120000EEF08BB0895909A919A949A9598262F6D
:1001300013D0909A919A9498959A272F0DD0909ACF
:100140009198949A959A282F07D09098919A949A7A
:10015000959A292F01D00895022F0FD048BBFCE1BA
:10016000EFEF08D00EEF08BB21E001D008952A95EB
:10017000F1F708953197F1F708952030B1F021306B
:10018000B1F02230B1F02330B1F02430B1F025309D
:10019000B1F02630B1F02730B1F02730A1F028308F
:1001A000A1F02930A1F04EEF089542E008954EE904
:1001B000089544E208954CE0089548E9089548E41C
:1001C000089540EC08954EE1089540E0089548E117
:1001D00008958A9A92982F93CADF2F91929A2F931B
:1001E000C6DF2F911197B1F78A9808951196BF3FF6
:1001F00031F4AF3F21F461E070E080E090E01895C9
:1002000018951FB65A955F3F71F451E06A956F3F9C
:1002100051F469E07A957F3F31F475E08A958F3F1C
:1002200011F489E09A95603051F4703041F48030D7
:1002300031F4903021F400270EBD00E00BBF1FBE4B
:040240001895189560
:00000001FF
