:020000020000FC
:1000000012C008C113C113C112C131C130C12FC107
:100010002EC12DC12CC12BC12AC129C128C127C184
:1000200026C125C124C10FED0DBF0FEF07BB03E3B0
:1000300001BB0CE402BB01E00BBD02E10ABD00E420
:1000400009BF04B700FF08C0B1E0AFEF20EC94D0C7
:10005000B1E0AFEF2FEF90D0002704BF7894C4D069
:10006000FFEFEFEF21D0FFEFEFEF1ED066277727EE
:10007000882791E095D047D00EB50B3009F0FACF24
:100080008FD0BDD00EB5003009F0FACF909A919A7A
:10009000949A959802E008BBB0E4AFEF20EE6CD0E4
:1000A000C2CF2A95F1F708953197F1F708952030DE
:1000B000B1F02130B1F02230B1F02330B1F0243072
:1000C000B1F02530B1F02630B1F02730B1F0273053
:1000D000A1F02830A1F02930A1F04EEF089542E0C0
:1000E00008954EE9089544E208954CE0089548E9E2
:1000F000089548E4089540EC08954EE1089540E0E5
:10010000089548E1089500B30C740C3469F006FFBB
:10011000239403FF339402FF439403E0201629F055
:10012000301631F0401639F00895222407D0089592
:1001300033240ED00895442418D0089583958A302E
:1001400031F4993019F088279395089589E008953E
:100150008A958F3F29F0803000E0900721F00895C4
:1001600089E09A95089581E008950BE00EBD8E9A7E
:100170008B9A00E40BBF08958A9A92982F9391DF8F
:100180002F91929A2F938DDF2F911197B1F78A9823
:100190000895909A919A949A959A0EEF08BB0895B3
:1001A000909A919A949A9598262F13D0909A919A12
:1001B0009498959A272F0DD0909A9198949A959A01
:1001C000282F07D09098919A949A959A292F01D028
:1001D0000895022F6CDF48BBFCE1EFEF65DF0EEF07
:1001E00008BB21E05EDF0895D4DF00E40BBF00E32D
:1001F00005BF889500E005BF00E00BBF08955130B2
:1002000019F0503021F008959698939A0895969A8F
:10021000939808951FB61196BF3F31F4AF3F21F474
:1002200061E070E080E090E01FBE189518951FB661
:100230005A955F3F71F451E06A956F3F51F469E060
:100240007A957F3F31F475E08A958F3F11F489E00C
:100250009A95603051F4703041F4803031F4903030
:1002600021F400270EBD00E00BBF1FBE18951895A6
:00000001FF
