:020000020000FC
:1000000012C01CC11BC11BC11AC137C136C135C1C9
:1000100034C133C132C131C130C12FC12EC12DC154
:100020002CC12BC12AC10FED0DBF0FEF07BB03E39E
:1000300001BB0CE402BB0AE70BBD02E10ABD00E410
:1000400009BF04B700FF08C0B1E0AFEF20ECA8D0B3
:10005000B1E0AFEF2FEFA4D0002704BF7894D8D041
:10006000FFEFEFEF22D0FFEFEFEF1FD066277727EC
:10007000882791E0A9D048D00EB50B3009F0FACF0F
:10008000A3D0D1D078D00EB5003009F0F9CF909A36
:10009000919A949A959802E008BBB0E4AFEF20EEF5
:1000A0007FD0C1CF2A95F1F708953197F1F70895E0
:1000B0002030B1F02130B1F02230B1F02330B1F076
:1000C0002430B1F02530B1F02630B1F02730B1F056
:1000D0002730A1F02830A1F02930A1F04EEF08958B
:1000E00042E008954EE9089544E208954CE00895F1
:1000F00048E9089548E4089540EC08954EE10895D4
:1001000040E0089548E1089500B30C740C3469F0A0
:1001100006FF239403FF339402FF439403E0201669
:1001200029F0301631F0401639F00895222407D016
:10013000089533240ED00895442418D0089583954B
:100140008A3031F4993019F088279395089589E021
:1001500008958A958F3F29F0803000E0900721F0C4
:10016000089589E09A95089581E008950BE00EBD09
:100170008E9A8B9A089500B30470043029F002FF20
:10018000439400E4401609F00895442401D00895F2
:1001900000270EBDB8E0AFEF2FEF02D044CF089597
:1001A0008A9A92982F937EDF2F91929A2F937ADFDB
:1001B0002F911197B1F78A980895909A919A949AED
:1001C000959A0EEF08BB0895909A919A949A9598F3
:1001D000262F13D0909A919A9498959A272F0DD004
:1001E000909A9198949A959A282F07D09098919ADE
:1001F000949A959A292F01D00895022F59DF48BB70
:10020000FCE1EFEF52DF0EEF08BB21E04BDF08957A
:10021000D4DF00E40BBF00E305BF889500E005BF15
:1002200000E00BBF0895513019F0503021F00895CF
:100230009698939A0895969A9398089518951FB64C
:100240005A955F3F71F451E06A956F3F51F469E050
:100250007A957F3F31F475E08A958F3F11F489E0FC
:100260009A95603041F4703031F4803021F4903050
:0C02700011F400270EBD1FBE1895189554
:00000001FF
